{
  "_format": "hh-sol-artifact-1",
  "contractName": "Escrow",
  "sourceName": "contracts/Escrow.sol",
  "abi": [
    {
      "inputs": [
        {
          "internalType": "address",
          "name": "_token",
          "type": "address"
        },
        {
          "internalType": "address payable",
          "name": "_canceler",
          "type": "address"
        },
        {
          "internalType": "uint256",
          "name": "_duration",
          "type": "uint256"
        },
        {
          "internalType": "address[]",
          "name": "_handlers",
          "type": "address[]"
        }
      ],
      "stateMutability": "nonpayable",
      "type": "constructor"
    },
    {
      "anonymous": false,
      "inputs": [
        {
          "indexed": true,
          "internalType": "uint256",
          "name": "_txId",
          "type": "uint256"
        },
        {
          "indexed": false,
          "internalType": "address[]",
          "name": "_recipients",
          "type": "address[]"
        },
        {
          "indexed": false,
          "internalType": "uint256[]",
          "name": "_amounts",
          "type": "uint256[]"
        },
        {
          "indexed": false,
          "internalType": "bool",
          "name": "_isPartial",
          "type": "bool"
        }
      ],
      "name": "BulkTransfer",
      "type": "event"
    },
    {
      "anonymous": false,
      "inputs": [],
      "name": "Cancelled",
      "type": "event"
    },
    {
      "anonymous": false,
      "inputs": [],
      "name": "Completed",
      "type": "event"
    },
    {
      "anonymous": false,
      "inputs": [
        {
          "indexed": false,
          "internalType": "string",
          "name": "_url",
          "type": "string"
        },
        {
          "indexed": false,
          "internalType": "string",
          "name": "_hash",
          "type": "string"
        }
      ],
      "name": "IntermediateStorage",
      "type": "event"
    },
    {
      "anonymous": false,
      "inputs": [
        {
          "indexed": false,
          "internalType": "string",
          "name": "manifest",
          "type": "string"
        },
        {
          "indexed": false,
          "internalType": "string",
          "name": "hash",
          "type": "string"
        }
      ],
      "name": "Pending",
      "type": "event"
    },
    {
      "anonymous": false,
      "inputs": [
        {
          "indexed": false,
          "internalType": "address",
          "name": "_handler",
          "type": "address"
        }
      ],
      "name": "TrustedHandlerAdded",
      "type": "event"
    },
    {
      "inputs": [],
      "name": "abort",
      "outputs": [],
      "stateMutability": "nonpayable",
      "type": "function"
    },
    {
      "inputs": [
        {
          "internalType": "address[]",
          "name": "_handlers",
          "type": "address[]"
        }
      ],
      "name": "addTrustedHandlers",
      "outputs": [],
      "stateMutability": "nonpayable",
      "type": "function"
    },
    {
      "inputs": [
        {
          "internalType": "address",
          "name": "",
          "type": "address"
        }
      ],
      "name": "areTrustedHandlers",
      "outputs": [
        {
          "internalType": "bool",
          "name": "",
          "type": "bool"
        }
      ],
      "stateMutability": "view",
      "type": "function"
    },
    {
      "inputs": [
        {
          "internalType": "address[]",
          "name": "_recipients",
          "type": "address[]"
        },
        {
          "internalType": "uint256[]",
          "name": "_amounts",
          "type": "uint256[]"
        },
        {
          "internalType": "string",
          "name": "_url",
          "type": "string"
        },
        {
          "internalType": "string",
          "name": "_hash",
          "type": "string"
        },
        {
          "internalType": "uint256",
          "name": "_txId",
          "type": "uint256"
        }
      ],
      "name": "bulkPayOut",
      "outputs": [],
      "stateMutability": "nonpayable",
      "type": "function"
    },
    {
      "inputs": [],
      "name": "cancel",
      "outputs": [
        {
          "internalType": "bool",
          "name": "",
          "type": "bool"
        }
      ],
      "stateMutability": "nonpayable",
      "type": "function"
    },
    {
      "inputs": [],
      "name": "canceler",
      "outputs": [
        {
          "internalType": "address payable",
          "name": "",
          "type": "address"
        }
      ],
      "stateMutability": "view",
      "type": "function"
    },
    {
      "inputs": [],
      "name": "complete",
      "outputs": [],
      "stateMutability": "nonpayable",
      "type": "function"
    },
    {
      "inputs": [],
      "name": "duration",
      "outputs": [
        {
          "internalType": "uint256",
          "name": "",
          "type": "uint256"
        }
      ],
      "stateMutability": "view",
      "type": "function"
    },
    {
      "inputs": [],
      "name": "finalResultsHash",
      "outputs": [
        {
          "internalType": "string",
          "name": "",
          "type": "string"
        }
      ],
      "stateMutability": "view",
      "type": "function"
    },
    {
      "inputs": [],
      "name": "finalResultsUrl",
      "outputs": [
        {
          "internalType": "string",
          "name": "",
          "type": "string"
        }
      ],
      "stateMutability": "view",
      "type": "function"
    },
    {
      "inputs": [],
      "name": "getBalance",
      "outputs": [
        {
          "internalType": "uint256",
          "name": "",
          "type": "uint256"
        }
      ],
      "stateMutability": "view",
      "type": "function"
    },
    {
      "inputs": [],
      "name": "launcher",
      "outputs": [
        {
          "internalType": "address",
          "name": "",
          "type": "address"
        }
      ],
      "stateMutability": "view",
      "type": "function"
    },
    {
      "inputs": [],
      "name": "manifestHash",
      "outputs": [
        {
          "internalType": "string",
          "name": "",
          "type": "string"
        }
      ],
      "stateMutability": "view",
      "type": "function"
    },
    {
      "inputs": [],
      "name": "manifestUrl",
      "outputs": [
        {
          "internalType": "string",
          "name": "",
          "type": "string"
        }
      ],
      "stateMutability": "view",
      "type": "function"
    },
    {
      "inputs": [],
      "name": "recordingOracle",
      "outputs": [
        {
          "internalType": "address",
          "name": "",
          "type": "address"
        }
      ],
      "stateMutability": "view",
      "type": "function"
    },
    {
      "inputs": [],
      "name": "recordingOracleFeePercentage",
      "outputs": [
        {
          "internalType": "uint8",
          "name": "",
          "type": "uint8"
        }
      ],
      "stateMutability": "view",
      "type": "function"
    },
    {
      "inputs": [],
      "name": "reputationOracle",
      "outputs": [
        {
          "internalType": "address",
          "name": "",
          "type": "address"
        }
      ],
      "stateMutability": "view",
      "type": "function"
    },
    {
      "inputs": [],
      "name": "reputationOracleFeePercentage",
      "outputs": [
        {
          "internalType": "uint8",
          "name": "",
          "type": "uint8"
        }
      ],
      "stateMutability": "view",
      "type": "function"
    },
    {
      "inputs": [
        {
          "internalType": "address",
          "name": "_reputationOracle",
          "type": "address"
        },
        {
          "internalType": "address",
          "name": "_recordingOracle",
          "type": "address"
        },
        {
          "internalType": "uint8",
          "name": "_reputationOracleFeePercentage",
          "type": "uint8"
        },
        {
          "internalType": "uint8",
          "name": "_recordingOracleFeePercentage",
          "type": "uint8"
        },
        {
          "internalType": "string",
          "name": "_url",
          "type": "string"
        },
        {
          "internalType": "string",
          "name": "_hash",
          "type": "string"
        }
      ],
      "name": "setup",
      "outputs": [],
      "stateMutability": "nonpayable",
      "type": "function"
    },
    {
      "inputs": [],
      "name": "status",
      "outputs": [
        {
          "internalType": "enum IEscrow.EscrowStatuses",
          "name": "",
          "type": "uint8"
        }
      ],
      "stateMutability": "view",
      "type": "function"
    },
    {
      "inputs": [
        {
          "internalType": "string",
          "name": "_url",
          "type": "string"
        },
        {
          "internalType": "string",
          "name": "_hash",
          "type": "string"
        }
      ],
      "name": "storeResults",
      "outputs": [],
      "stateMutability": "nonpayable",
      "type": "function"
    },
    {
      "inputs": [],
      "name": "token",
      "outputs": [
        {
          "internalType": "address",
          "name": "",
          "type": "address"
        }
      ],
      "stateMutability": "view",
      "type": "function"
    }
  ],
  "bytecode": "0x60806040523480156200001157600080fd5b50604051620034c2380380620034c2833981016040819052620000349162000426565b600160005560408051808201909152601481527f457363726f773a207a65726f206164647265737300000000000000000000000060208201526001600160a01b038516620000a05760405162461bcd60e51b81526004016200009791906200052e565b60405180910390fd5b5060408051808201909152601481527f457363726f773a207a65726f206164647265737300000000000000000000000060208201526001600160a01b038416620000ff5760405162461bcd60e51b81526004016200009791906200052e565b50600580546001600160a01b0319166001600160a01b0386161790556001805460ff191690556200013d8242620001ac602090811b62001cad17901c565b600a55600380546001600160a01b031990811633908117909255600480546001600160a01b0387169216821790556000908152600b6020526040808220805460ff19908116600190811790925593835291208054909216179055620001a28162000216565b50505050620005eb565b600080620001bb83856200059c565b9050838110156200020f5760405162461bcd60e51b815260206004820152601b60248201527f536166654d6174683a206164646974696f6e206f766572666c6f770000000000604482015260640162000097565b9392505050565b336000908152600b602052604090205460ff16620002775760405162461bcd60e51b815260206004820152601b60248201527f416464726573732063616c6c696e67206e6f7420747275737465640000000000604482015260640162000097565b60005b8151811015620003e15760006001600160a01b0316828281518110620002a457620002a4620005b7565b60200260200101516001600160a01b031614156040518060400160405280601481526020017f457363726f773a207a65726f2061646472657373000000000000000000000000815250906200030e5760405162461bcd60e51b81526004016200009791906200052e565b506001600b60008484815181106200032a576200032a620005b7565b60200260200101516001600160a01b03166001600160a01b0316815260200190815260200160002060006101000a81548160ff0219169083151502179055507fad3769ac0c1a91ee9dcf369f6d2989f91572b6f876933bbc82ab85f6b969a07a8282815181106200039f576200039f620005b7565b6020026020010151604051620003c491906001600160a01b0391909116815260200190565b60405180910390a180620003d881620005cd565b9150506200027a565b5050565b6001600160a01b0381168114620003fb57600080fd5b50565b80516200040b81620003e5565b919050565b634e487b7160e01b600052604160045260246000fd5b600080600080608085870312156200043d57600080fd5b84516200044a81620003e5565b809450506020808601516200045f81620003e5565b6040870151606088015191955093506001600160401b03808211156200048457600080fd5b818801915088601f8301126200049957600080fd5b815181811115620004ae57620004ae62000410565b8060051b604051601f19603f83011681018181108582111715620004d657620004d662000410565b60405291825284820192508381018501918b831115620004f557600080fd5b938501935b828510156200051e576200050e85620003fe565b84529385019392850192620004fa565b989b979a50959850505050505050565b600060208083528351808285015260005b818110156200055d578581018301518582016040015282016200053f565b8181111562000570576000604083870101525b50601f01601f1916929092016040019392505050565b634e487b7160e01b600052601160045260246000fd5b60008219821115620005b257620005b262000586565b500190565b634e487b7160e01b600052603260045260246000fd5b6000600019821415620005e457620005e462000586565b5060010190565b612ec780620005fb6000396000f3fe608060405234801561001057600080fd5b50600436106101825760003560e01c80639753e432116100d8578063b63d1a001161008c578063f17171e911610066578063f17171e91461034e578063fad844c114610371578063fc0c546a1461039657600080fd5b8063b63d1a00146102fe578063c479bbf814610311578063ea8a1af01461033657600080fd5b80639c48b102116100bd5780639c48b102146102d05780639eb262f3146102d8578063a96014b6146102eb57600080fd5b80639753e43214610290578063992d454d146102b057600080fd5b8063337f3f321161013a578063522e117711610114578063522e11771461023d578063697e4b871461024557806378c624201461025857600080fd5b8063337f3f321461022357806335a063b41461022b57806343aba9c21461023557600080fd5b806312065fe01161016b57806312065fe0146101bc57806316eebd1e146101c4578063200d2ed21461020957600080fd5b80630f46c9aa146101875780630fb5a6b4146101a5575b600080fd5b61018f6103b6565b60405161019c919061262e565b60405180910390f35b6101ae600a5481565b60405190815260200161019c565b6101ae610444565b6003546101e49073ffffffffffffffffffffffffffffffffffffffff1681565b60405173ffffffffffffffffffffffffffffffffffffffff909116815260200161019c565b6001546102169060ff1681565b60405161019c9190612670565b61018f61058b565b610233610598565b005b61018f61074a565b610233610757565b6102336102533660046127bd565b610911565b60045461027e907501000000000000000000000000000000000000000000900460ff1681565b60405160ff909116815260200161019c565b6002546101e49073ffffffffffffffffffffffffffffffffffffffff1681565b6004546101e49073ffffffffffffffffffffffffffffffffffffffff1681565b61018f610b02565b6102336102e63660046128e0565b610b0f565b6102336102f9366004612926565b610d40565b61023361030c3660046129cb565b611231565b60045461027e9074010000000000000000000000000000000000000000900460ff1681565b61033e611a2e565b604051901515815260200161019c565b61033e61035c366004612ad4565b600b6020526000908152604090205460ff1681565b6001546101e490610100900473ffffffffffffffffffffffffffffffffffffffff1681565b6005546101e49073ffffffffffffffffffffffffffffffffffffffff1681565b600980546103c390612aef565b80601f01602080910402602001604051908101604052809291908181526020018280546103ef90612aef565b801561043c5780601f106104115761010080835404028352916020019161043c565b820191906000526020600020905b81548152906001019060200180831161041f57829003601f168201915b505050505081565b6005546040513060248201526000918291829173ffffffffffffffffffffffffffffffffffffffff16907f70a08231b98ef4ca268c9cc3f6b4590e4bfec28280db06bb5d45e689f2a360be90604401604080517fffffffffffffffffffffffffffffffffffffffffffffffffffffffffffffffe08184030181529181526020820180517bffffffffffffffffffffffffffffffffffffffffffffffffffffffff167fffffffff0000000000000000000000000000000000000000000000000000000090941693909317909252905161051c9190612b43565b600060405180830381855afa9150503d8060008114610557576040519150601f19603f3d011682016040523d82523d6000602084013e61055c565b606091505b50915091508115610582578080602001905181019061057b9190612b5f565b9250505090565b60009250505090565b600780546103c390612aef565b336000908152600b602052604090205460ff16610616576040517f08c379a000000000000000000000000000000000000000000000000000000000815260206004820152601b60248201527f416464726573732063616c6c696e67206e6f742074727573746564000000000060448201526064015b60405180910390fd5b600460015460ff16600581111561062f5761062f612641565b1415610697576040517f08c379a000000000000000000000000000000000000000000000000000000000815260206004820152601f60248201527f457363726f7720696e20436f6d706c6574652073746174757320737461746500604482015260640161060d565b600360015460ff1660058111156106b0576106b0612641565b1415610718576040517f08c379a000000000000000000000000000000000000000000000000000000000815260206004820152601b60248201527f457363726f7720696e2050616964207374617475732073746174650000000000604482015260640161060d565b610720610444565b1561072f5761072d611a2e565b505b60045473ffffffffffffffffffffffffffffffffffffffff16ff5b600880546103c390612aef565b42600a54116107c2576040517f08c379a000000000000000000000000000000000000000000000000000000000815260206004820152601060248201527f436f6e7472616374206578706972656400000000000000000000000000000000604482015260640161060d565b336000908152600b602052604090205460ff1661083b576040517f08c379a000000000000000000000000000000000000000000000000000000000815260206004820152601b60248201527f416464726573732063616c6c696e67206e6f7420747275737465640000000000604482015260640161060d565b600360015460ff16600581111561085457610854612641565b146108bb576040517f08c379a000000000000000000000000000000000000000000000000000000000815260206004820152601860248201527f457363726f77206e6f7420696e20506169642073746174650000000000000000604482015260640161060d565b600180547fffffffffffffffffffffffffffffffffffffffffffffffffffffffffffffff001660041790556040517fe06452d00b2b58f14a1fa6d499ea982ff93ea827ae700ea9ba03f4daddc94bc190600090a1565b336000908152600b602052604090205460ff1661098a576040517f08c379a000000000000000000000000000000000000000000000000000000000815260206004820152601b60248201527f416464726573732063616c6c696e67206e6f7420747275737465640000000000604482015260640161060d565b42600a54116109f5576040517f08c379a000000000000000000000000000000000000000000000000000000000815260206004820152601060248201527f436f6e7472616374206578706972656400000000000000000000000000000000604482015260640161060d565b6001805460ff166005811115610a0d57610a0d612641565b1480610a2f5750600260015460ff166005811115610a2d57610a2d612641565b145b610abb576040517f08c379a000000000000000000000000000000000000000000000000000000000815260206004820152602d60248201527f457363726f77206e6f7420696e2050656e64696e67206f72205061727469616c60448201527f2073746174757320737461746500000000000000000000000000000000000000606482015260840161060d565b610ac58282611d2f565b7fb20e0717219840fd5684a80bec782e8babb56ea224f677561b791a61192605c18282604051610af6929190612b78565b60405180910390a15050565b600680546103c390612aef565b336000908152600b602052604090205460ff16610b88576040517f08c379a000000000000000000000000000000000000000000000000000000000815260206004820152601b60248201527f416464726573732063616c6c696e67206e6f7420747275737465640000000000604482015260640161060d565b60005b8151811015610d3c57600073ffffffffffffffffffffffffffffffffffffffff16828281518110610bbe57610bbe612b9d565b602002602001015173ffffffffffffffffffffffffffffffffffffffff1614156040518060400160405280601481526020017f457363726f773a207a65726f206164647265737300000000000000000000000081525090610c4c576040517f08c379a000000000000000000000000000000000000000000000000000000000815260040161060d919061262e565b506001600b6000848481518110610c6557610c65612b9d565b602002602001015173ffffffffffffffffffffffffffffffffffffffff1673ffffffffffffffffffffffffffffffffffffffff16815260200190815260200160002060006101000a81548160ff0219169083151502179055507fad3769ac0c1a91ee9dcf369f6d2989f91572b6f876933bbc82ab85f6b969a07a828281518110610cf157610cf1612b9d565b6020026020010151604051610d22919073ffffffffffffffffffffffffffffffffffffffff91909116815260200190565b60405180910390a180610d3481612bfb565b915050610b8b565b5050565b336000908152600b602052604090205460ff16610db9576040517f08c379a000000000000000000000000000000000000000000000000000000000815260206004820152601b60248201527f416464726573732063616c6c696e67206e6f7420747275737465640000000000604482015260640161060d565b42600a5411610e24576040517f08c379a000000000000000000000000000000000000000000000000000000000815260206004820152601060248201527f436f6e7472616374206578706972656400000000000000000000000000000000604482015260640161060d565b73ffffffffffffffffffffffffffffffffffffffff8616610ea1576040517f08c379a000000000000000000000000000000000000000000000000000000000815260206004820181905260248201527f496e76616c6964206f72206d697373696e6720746f6b656e207370656e646572604482015260640161060d565b73ffffffffffffffffffffffffffffffffffffffff8516610f1e576040517f08c379a000000000000000000000000000000000000000000000000000000000815260206004820181905260248201527f496e76616c6964206f72206d697373696e6720746f6b656e207370656e646572604482015260640161060d565b6000610f3060ff808616908716612c34565b90506064811115610f9d576040517f08c379a000000000000000000000000000000000000000000000000000000000815260206004820152601860248201527f50657263656e74616765206f7574206f6620626f756e64730000000000000000604482015260640161060d565b600060015460ff166005811115610fb657610fb6612641565b14611043576040517f08c379a000000000000000000000000000000000000000000000000000000000815260206004820152602360248201527f457363726f77206e6f7420696e204c61756e636865642073746174757320737460448201527f6174650000000000000000000000000000000000000000000000000000000000606482015260840161060d565b600180547fffffffffffffffffffffff0000000000000000000000000000000000000000ff1661010073ffffffffffffffffffffffffffffffffffffffff8a8116820292909217808455600280547fffffffffffffffffffffffff0000000000000000000000000000000000000000168b851617815591900482166000908152600b6020908152604080832080547fffffffffffffffffffffffffffffffffffffffffffffffffffffffffffffff009081168817909155935490941682529290208054909116909217909155600480547fffffffffffffffffffff0000ffffffffffffffffffffffffffffffffffffffff167401000000000000000000000000000000000000000060ff898116919091027fffffffffffffffffffff00ffffffffffffffffffffffffffffffffffffffffff169190911775010000000000000000000000000000000000000000009188169190910217905583516111ad916006919086019061251f565b5081516111c190600790602085019061251f565b50600180547fffffffffffffffffffffffffffffffffffffffffffffffffffffffffffffff0016811790556040517f8ec464ac0c8e44e17130cd1ffb09967fa6f2c33339289678a59ea0112cfc2aa99061122090600690600790612d23565b60405180910390a150505050505050565b336000908152600b602052604090205460ff166112aa576040517f08c379a000000000000000000000000000000000000000000000000000000000815260206004820152601b60248201527f416464726573732063616c6c696e67206e6f7420747275737465640000000000604482015260640161060d565b6112b2610444565b611318576040517f08c379a000000000000000000000000000000000000000000000000000000000815260206004820152601b60248201527f546f6b656e20636f6e7472616374206f7574206f662066756e64730000000000604482015260640161060d565b600060015460ff16600581111561133157611331612641565b1415611399576040517f08c379a000000000000000000000000000000000000000000000000000000000815260206004820152601f60248201527f457363726f7720696e204c61756e636865642073746174757320737461746500604482015260640161060d565b600360015460ff1660058111156113b2576113b2612641565b141561141a576040517f08c379a000000000000000000000000000000000000000000000000000000000815260206004820152601b60248201527f457363726f7720696e2050616964207374617475732073746174650000000000604482015260640161060d565b42600a5411611485576040517f08c379a000000000000000000000000000000000000000000000000000000000815260206004820152601060248201527f436f6e7472616374206578706972656400000000000000000000000000000000604482015260640161060d565b61148d611d78565b835185511461151e576040517f08c379a000000000000000000000000000000000000000000000000000000000815260206004820152602b60248201527f416d6f756e74206f6620726563697069656e747320616e642076616c7565732060448201527f646f6e2774206d61746368000000000000000000000000000000000000000000606482015260840161060d565b6000845111611589576040517f08c379a000000000000000000000000000000000000000000000000000000000815260206004820152601b60248201527f416d6f756e74732073686f756c64206e6f7420626520656d7074790000000000604482015260640161060d565b84516064116115f4576040517f08c379a000000000000000000000000000000000000000000000000000000000815260206004820152601360248201527f546f6f206d616e7920726563697069656e747300000000000000000000000000604482015260640161060d565b600460015460ff16600581111561160d5761160d612641565b141580156116325750600560015460ff16600581111561162f5761162f612641565b14155b611698576040517f08c379a000000000000000000000000000000000000000000000000000000000815260206004820152600e60248201527f496e76616c696420737461747573000000000000000000000000000000000000604482015260640161060d565b60006116a2610444565b90506000805b865181101561179a5760008782815181106116c5576116c5612b9d565b60200260200101511161175a576040517f08c379a000000000000000000000000000000000000000000000000000000000815260206004820152602260248201527f416d6f756e742073686f756c642062652067726561746572207468616e207a6560448201527f726f000000000000000000000000000000000000000000000000000000000000606482015260840161060d565b61178687828151811061176f5761176f612b9d565b602002602001015183611cad90919063ffffffff16565b91508061179281612bfb565b9150506116a8565b506b033b2e3c9fd0803ce80000008110611810576040517f08c379a000000000000000000000000000000000000000000000000000000000815260206004820152601360248201527f42756c6b2076616c756520746f6f206869676800000000000000000000000000604482015260640161060d565b8181111561187a576040517f08c379a000000000000000000000000000000000000000000000000000000000815260206004820152601260248201527f4e6f7420656e6f7567682062616c616e63650000000000000000000000000000604482015260640161060d565b6118848585611d2f565b600080600061189289611dec565b92509250925060005b8a518110156119125760008482815181106118b8576118b8612b9d565b60200260200101511115611902576119028b82815181106118db576118db612b9d565b60200260200101518583815181106118f5576118f5612b9d565b6020026020010151611f7e565b61190b81612bfb565b905061189b565b5081156119415760015461194190610100900473ffffffffffffffffffffffffffffffffffffffff1683611f7e565b801561196a5760025461196a9073ffffffffffffffffffffffffffffffffffffffff1682611f7e565b611972610444565b94506000856119ae5750600180547fffffffffffffffffffffffffffffffffffffffffffffffffffffffffffffff0016600317905560006119db565b50600180547fffffffffffffffffffffffffffffffffffffffffffffffffffffffffffffff001660021781555b867f776950576f5bac7433f5095f1490841528a48d38607deca7d6f270988ec32b8a8c8684604051611a0f93929190612d48565b60405180910390a2505050505050611a276001600055565b5050505050565b336000908152600b602052604081205460ff16611aa7576040517f08c379a000000000000000000000000000000000000000000000000000000000815260206004820152601b60248201527f416464726573732063616c6c696e67206e6f7420747275737465640000000000604482015260640161060d565b611aaf610444565b611b15576040517f08c379a000000000000000000000000000000000000000000000000000000000815260206004820152601b60248201527f546f6b656e20636f6e7472616374206f7574206f662066756e64730000000000604482015260640161060d565b600460015460ff166005811115611b2e57611b2e612641565b1415611b96576040517f08c379a000000000000000000000000000000000000000000000000000000000815260206004820152601f60248201527f457363726f7720696e20436f6d706c6574652073746174757320737461746500604482015260640161060d565b600360015460ff166005811115611baf57611baf612641565b1415611c17576040517f08c379a000000000000000000000000000000000000000000000000000000000815260206004820152601b60248201527f457363726f7720696e2050616964207374617475732073746174650000000000604482015260640161060d565b611c1f611d78565b600454611c499073ffffffffffffffffffffffffffffffffffffffff16611c44610444565b611f7e565b600180547fffffffffffffffffffffffffffffffffffffffffffffffffffffffffffffff001660051790556040517f63b958841f79ab97cb5456da181454b9932c0e15a3b17f1cbd27e2a8bc61043790600090a1506001611caa6001600055565b90565b600080611cba8385612c34565b905083811015611d26576040517f08c379a000000000000000000000000000000000000000000000000000000000815260206004820152601b60248201527f536166654d6174683a206164646974696f6e206f766572666c6f770000000000604482015260640161060d565b90505b92915050565b600081516000141580611d425750825115155b90508015611d73578251611d5d90600890602086019061251f565b508151611d7190600990602085019061251f565b505b505050565b60026000541415611de5576040517f08c379a000000000000000000000000000000000000000000000000000000000815260206004820152601f60248201527f5265656e7472616e637947756172643a207265656e7472616e742063616c6c00604482015260640161060d565b6002600055565b60606000806000845167ffffffffffffffff811115611e0d57611e0d6126b1565b604051908082528060200260200182016040528015611e36578160200160208202803683370190505b50905060008060005b8751811015611f70576000611e996064611e938b8581518110611e6457611e64612b9d565b602090810291909101015160045474010000000000000000000000000000000000000000900460ff1690611fa2565b90612057565b90506000611ee76064611e938c8681518110611eb757611eb7612b9d565b60209081029190910101516004547501000000000000000000000000000000000000000000900460ff1690611fa2565b90506000611f2182611f1b858e8881518110611f0557611f05612b9d565b602002602001015161209990919063ffffffff16565b90612099565b9050611f2d8684611cad565b9550611f398583611cad565b945080878581518110611f4e57611f4e612b9d565b6020026020010181815250505050508080611f6890612bfb565b915050611e3f565b509196909550909350915050565b600554610d3c9073ffffffffffffffffffffffffffffffffffffffff1683836120db565b600082611fb157506000611d29565b6000611fbd8385612de0565b905082611fca8583612e1d565b14611d26576040517f08c379a000000000000000000000000000000000000000000000000000000000815260206004820152602160248201527f536166654d6174683a206d756c7469706c69636174696f6e206f766572666c6f60448201527f7700000000000000000000000000000000000000000000000000000000000000606482015260840161060d565b6000611d2683836040518060400160405280601a81526020017f536166654d6174683a206469766973696f6e206279207a65726f000000000000815250612168565b6000611d2683836040518060400160405280601e81526020017f536166654d6174683a207375627472616374696f6e206f766572666c6f7700008152506121b9565b6040805173ffffffffffffffffffffffffffffffffffffffff8416602482015260448082018490528251808303909101815260649091019091526020810180517bffffffffffffffffffffffffffffffffffffffffffffffffffffffff167fa9059cbb00000000000000000000000000000000000000000000000000000000179052611d73908490612204565b600081836121a3576040517f08c379a000000000000000000000000000000000000000000000000000000000815260040161060d919061262e565b5060006121b08486612e1d565b95945050505050565b600081848411156121f7576040517f08c379a000000000000000000000000000000000000000000000000000000000815260040161060d919061262e565b5060006121b08486612e58565b6000612266826040518060400160405280602081526020017f5361666545524332303a206c6f772d6c6576656c2063616c6c206661696c65648152508573ffffffffffffffffffffffffffffffffffffffff166123139092919063ffffffff16565b90508051600014806122875750808060200190518101906122879190612e6f565b611d73576040517f08c379a000000000000000000000000000000000000000000000000000000000815260206004820152602a60248201527f5361666545524332303a204552433230206f7065726174696f6e20646964206e60448201527f6f74207375636365656400000000000000000000000000000000000000000000606482015260840161060d565b6060612322848460008561232a565b949350505050565b6060824710156123bc576040517f08c379a000000000000000000000000000000000000000000000000000000000815260206004820152602660248201527f416464726573733a20696e73756666696369656e742062616c616e636520666f60448201527f722063616c6c0000000000000000000000000000000000000000000000000000606482015260840161060d565b6000808673ffffffffffffffffffffffffffffffffffffffff1685876040516123e59190612b43565b60006040518083038185875af1925050503d8060008114612422576040519150601f19603f3d011682016040523d82523d6000602084013e612427565b606091505b509150915061243887838387612443565b979650505050505050565b606083156124d65782516124cf5773ffffffffffffffffffffffffffffffffffffffff85163b6124cf576040517f08c379a000000000000000000000000000000000000000000000000000000000815260206004820152601d60248201527f416464726573733a2063616c6c20746f206e6f6e2d636f6e7472616374000000604482015260640161060d565b5081612322565b61232283838151156124eb5781518083602001fd5b806040517f08c379a000000000000000000000000000000000000000000000000000000000815260040161060d919061262e565b82805461252b90612aef565b90600052602060002090601f01602090048101928261254d5760008555612593565b82601f1061256657805160ff1916838001178555612593565b82800160010185558215612593579182015b82811115612593578251825591602001919060010190612578565b5061259f9291506125a3565b5090565b5b8082111561259f57600081556001016125a4565b60005b838110156125d35781810151838201526020016125bb565b83811115611d715750506000910152565b600081518084526125fc8160208601602086016125b8565b601f017fffffffffffffffffffffffffffffffffffffffffffffffffffffffffffffffe0169290920160200192915050565b602081526000611d2660208301846125e4565b7f4e487b7100000000000000000000000000000000000000000000000000000000600052602160045260246000fd5b60208101600683106126ab577f4e487b7100000000000000000000000000000000000000000000000000000000600052602160045260246000fd5b91905290565b7f4e487b7100000000000000000000000000000000000000000000000000000000600052604160045260246000fd5b604051601f82017fffffffffffffffffffffffffffffffffffffffffffffffffffffffffffffffe016810167ffffffffffffffff81118282101715612727576127276126b1565b604052919050565b600082601f83011261274057600080fd5b813567ffffffffffffffff81111561275a5761275a6126b1565b61278b60207fffffffffffffffffffffffffffffffffffffffffffffffffffffffffffffffe0601f840116016126e0565b8181528460208386010111156127a057600080fd5b816020850160208301376000918101602001919091529392505050565b600080604083850312156127d057600080fd5b823567ffffffffffffffff808211156127e857600080fd5b6127f48683870161272f565b9350602085013591508082111561280a57600080fd5b506128178582860161272f565b9150509250929050565b600067ffffffffffffffff82111561283b5761283b6126b1565b5060051b60200190565b803573ffffffffffffffffffffffffffffffffffffffff8116811461286957600080fd5b919050565b600082601f83011261287f57600080fd5b8135602061289461288f83612821565b6126e0565b82815260059290921b840181019181810190868411156128b357600080fd5b8286015b848110156128d5576128c881612845565b83529183019183016128b7565b509695505050505050565b6000602082840312156128f257600080fd5b813567ffffffffffffffff81111561290957600080fd5b6123228482850161286e565b803560ff8116811461286957600080fd5b60008060008060008060c0878903121561293f57600080fd5b61294887612845565b955061295660208801612845565b945061296460408801612915565b935061297260608801612915565b9250608087013567ffffffffffffffff8082111561298f57600080fd5b61299b8a838b0161272f565b935060a08901359150808211156129b157600080fd5b506129be89828a0161272f565b9150509295509295509295565b600080600080600060a086880312156129e357600080fd5b853567ffffffffffffffff808211156129fb57600080fd5b612a0789838a0161286e565b9650602091508188013581811115612a1e57600080fd5b8801601f81018a13612a2f57600080fd5b8035612a3d61288f82612821565b81815260059190911b8201840190848101908c831115612a5c57600080fd5b928501925b82841015612a7a57833582529285019290850190612a61565b98505050506040880135915080821115612a9357600080fd5b612a9f89838a0161272f565b94506060880135915080821115612ab557600080fd5b50612ac28882890161272f565b95989497509295608001359392505050565b600060208284031215612ae657600080fd5b611d2682612845565b600181811c90821680612b0357607f821691505b60208210811415612b3d577f4e487b7100000000000000000000000000000000000000000000000000000000600052602260045260246000fd5b50919050565b60008251612b558184602087016125b8565b9190910192915050565b600060208284031215612b7157600080fd5b5051919050565b604081526000612b8b60408301856125e4565b82810360208401526121b081856125e4565b7f4e487b7100000000000000000000000000000000000000000000000000000000600052603260045260246000fd5b7f4e487b7100000000000000000000000000000000000000000000000000000000600052601160045260246000fd5b60007fffffffffffffffffffffffffffffffffffffffffffffffffffffffffffffffff821415612c2d57612c2d612bcc565b5060010190565b60008219821115612c4757612c47612bcc565b500190565b8054600090600181811c9080831680612c6657607f831692505b6020808410821415612ca1577f4e487b7100000000000000000000000000000000000000000000000000000000600052602260045260246000fd5b83885260208801828015612cbc5760018114612ceb57612d16565b7fffffffffffffffffffffffffffffffffffffffffffffffffffffffffffffff00871682528282019750612d16565b60008981526020902060005b87811015612d1057815484820152908601908401612cf7565b83019850505b5050505050505092915050565b604081526000612d366040830185612c4c565b82810360208401526121b08185612c4c565b606080825284519082018190526000906020906080840190828801845b82811015612d9757815173ffffffffffffffffffffffffffffffffffffffff1684529284019290840190600101612d65565b5050508381038285015285518082528683019183019060005b81811015612dcc57835183529284019291840191600101612db0565b505085151560408601529250612322915050565b6000817fffffffffffffffffffffffffffffffffffffffffffffffffffffffffffffffff0483118215151615612e1857612e18612bcc565b500290565b600082612e53577f4e487b7100000000000000000000000000000000000000000000000000000000600052601260045260246000fd5b500490565b600082821015612e6a57612e6a612bcc565b500390565b600060208284031215612e8157600080fd5b81518015158114611d2657600080fdfea2646970667358221220b8ebeeacf2349eb560fa4d1384023e200fcb47479e09d657540a95d1ff8915d564736f6c63430008090033",
  "linkReferences": {},
  "deployedLinkReferences": {}
}